S00B00004C43442E7372656346
S11300000C942A000C943F000C943F000C943F0085
S11300100C943F000C943F000C943F000C943F0060
S11300200C943F000C943F000C943F000C943F0050
S11300300C943F000C943F000C943F000C943F0040
S11300400C943F000C943F000C943F000C943F0030
S11300500C943F0011241FBECFE5D8E0DEBFCDBF16
S113006010E0A0E6B0E0ECE1F9E002C005900D92EA
S1130070A037B107D9F70E94E8010C948C040C94C2
S11300800000CF93C82F40E063E080E00E943B0271
S11300908FEC97E00197F1F700C0000041E062E0C7
S11300A080E00E943B028FEC97E00197F1F700C0DB
S11300B000004C2F407150E0559547955595479554
S11300C0559547955595479560E081E00E943B0220
S11300D04C2F407250E05595479555954795559549
S11300E04795559547955595479561E081E00E9460
S11300F03B024C2F407450E0042E452F000C441F4B
S1130100550B000C441F551F62E081E00E943B0226
S11301104C2F441F4427441F64E081E00E943B02AB
S11301208FEC97E00197F1F700C0000040E062E037
S113013080E00E943B028FEC97E00197F1F700C04A
S1130140000041E062E080E00E943B028FEC97E017
S11301500197F1F700C000004C2F417060E081E08E
S11301600E943B024C2F427050E05595479561E048
S113017081E00E943B024C2F447050E05595479516
S11301805595479562E081E00E943B02C8704C2F70
S113019050E055954795559547955595479564E095
S11301A081E00E943B028FEC97E00197F1F700C0D9
S11301B0000040E062E080E00E943B028FEC97E0A8
S11301C00197F1F700C00000CF91089541E063E08A
S11301D080E00E94B40241E062E080E00E94B40248
S11301E08FE39CE90197F1F700C0000041E060E073
S11301F081E00E94B40241E061E081E00E94B40227
S113020041E062E081E00E94B40241E064E081E008
S11302100E94B40283E30E94410082E30E944100F1
S113022088E20E9441008CE00E94410081E00E942B
S113023041000895CF93C82F41E063E080E00E941D
S11302403B028FEC97E00197F1F700C0000041E01A
S113025062E080E00E943B028FEC97E00197F1F7A7
S113026000C000004C2F407150E0559547955595BE
S11302704795559547955595479560E081E00E94CF
S11302803B024C2F407250E0559547955595479544
S113029055954795559547955595479561E081E066
S11302A00E943B024C2F407450E0042E452F000C5A
S11302B0441F550B000C441F551F62E081E00E944F
S11302C03B024C2F441F4427441F64E081E00E94FA
S11302D03B028FEC97E00197F1F700C0000040E08B
S11302E062E080E00E943B028FEC97E00197F1F717
S11302F000C0000041E062E080E00E943B028FEC1D
S113030097E00197F1F700C000004C2F417060E0C6
S113031081E00E943B024C2F427050E05595479576
S113032061E081E00E943B024C2F447050E05595FF
S113033047955595479562E081E00E943B02C8705D
S11303404C2F50E0559547955595479555954795AC
S113035064E081E00E943B028FEC97E00197F1F7A3
S113036000C0000040E062E080E00E943B028FECAD
S113037097E00197F1F700C00000CF910895CF9363
S1130380DF93EC0103C00E941A0121968881811138
S1130390FACFDF91CF910895813059F028F082305F
S11303A069F0833081F0089580E8860F0E9441004F
S11303B0089580EC860F0E944100089584E9860F19
S11303C00E944100089584ED860F0E944100089523
S11303D0CF93DF9300D000D01F92CDB7DEB740E0BB
S11303E061E080E00E94B4020E94E60060E080E0E8
S11303F00E94CC0180E690E00E94BF010E942A0284
S11304006FE080E00E94CC0181E00E942F02BC01D9
S113041080E090E00E945C0328E431EE4AEF5EE362
S11304200E94C2030E942D03DC01CB014AE0BE01FD
S11304306F5F7F4F0E945704CE0101960E94BF0157
S11304402FEF89E698E1215080409040E1F700C009
S11304500000D6CF80E487B987E886B9089597B1BC
S11304608F70982B97B986B1806486B93699FECF80
S113047084B195B10895813019F130F08230E1F101
S1130480833009F455C00895442319F0413069F0CC
S113049008952BB381E090E002C0880F991F6A95FC
S11304A0E2F7809582238BBB08952BB381E090E023
S11304B002C0880F991F6A95E2F7822B8BBB0895BF
S11304C0442319F0413069F0089528B381E090E0A5
S11304D002C0880F991F6A95E2F78095822388BB32
S11304E0089528B381E090E002C0880F991F6A95AF
S11304F0E2F7822B88BB0895442319F0413069F058
S1130500089525B381E090E002C0880F991F6A9591
S1130510E2F78095822385BB089525B381E090E0BE
S113052002C0880F991F6A95E2F7822B85BB089554
S1130530442319F0413069F0089522B381E090E03A
S113054002C0880F991F6A95E2F78095822382BBC7
S1130550089522B381E090E002C0880F991F6A9544
S1130560E2F7822B82BB0895813019F130F082309A
S1130570E1F1833009F455C00895442319F0413062
S113058069F008952AB381E090E002C0880F991FB2
S11305906A95E2F7809582238ABB08952AB381E0A5
S11305A090E002C0880F991F6A95E2F7822B8ABBFC
S11305B00895442319F0413069F0089527B381E088
S11305C090E002C0880F991F6A95E2F78095822314
S11305D087BB089527B381E090E002C0880F991F7C
S11305E06A95E2F7822B87BB0895442319F04130C2
S11305F069F0089524B381E090E002C0880F991F48
S11306006A95E2F78095822384BB089524B381E040
S113061090E002C0880F991F6A95E2F7822B84BB91
S11306200895442319F0413069F0089521B381E01D
S113063090E002C0880F991F6A95E2F780958223A3
S113064081BB089521B381E090E002C0880F991F17
S11306506A95E2F7822B81BB08950E94A10388F07A
S11306609F5798F0B92F9927B751B0F0E1F0660F72
S1130670771F881F991F1AF0BA95C9F714C0B130B3
S113068091F00E94BB03B1E008950C94BB03672F63
S1130690782F8827B85F39F0B93FCCF386957795E2
S11306A06795B395D9F73EF49095809570956195CB
S11306B07F4F8F4F9F4F0895E89409C097FB3EF4F6
S11306C090958095709561957F4F8F4F9F4F99239B
S11306D0A9F0F92F96E9BB279395F6958795779519
S11306E06795B795F111F8CFFAF4BB0F11F460FFD9
S11306F01BC06F5F7F4F8F4F9F4F16C0882311F031
S113070096E911C0772321F09EE8872F762F05C044
S1130710662371F096E8862F70E060E02AF09A95DF
S1130720660F771F881FDAF7880F9695879597F9D4
S1130730089557FD9058440F551F59F05F3F71F0CD
S11307404795880F97FB991F61F09F3F79F0879534
S11307500895121613061406551FF2CF4695F1DFBD
S113076008C0161617061806991FF1CF869571054D
S1130770610508940895E894BB2766277727CB0181
S113078097F908950E94D5030C9446040E943804F6
S113079038F00E943F0420F0952311F00C942F04AC
S11307A00C94350411240C94BC030E94990370F337
S11307B0959FC1F3950F50E0551F629FF001729F02
S11307C0BB27F00DB11D639FAA27F00DB11DAA1F11
S11307D0649F6627B00DA11D661F829F2227B00D5E
S11307E0A11D621F739FB00DA11D621F839FA00DE9
S11307F0611D221F749F3327A00D611D231F849F39
S1130800600D211D822F762F6A2F11249F5750408F
S11308109AF0F1F088234AF0EE0FFF1FBB1F661F0A
S1130820771F881F91505040A9F79E3F510580F0D3
S11308300C942F040C94BC035F3FE4F3983ED4F370
S1130840869577956795B795F795E7959F5FC1F777
S1130850FE2B880F911D9695879597F9089597F922
S11308609F6780E870E060E008959FEF80EC089552
S113087000240A941616170618060906089500247B
S11308800A9412161306140605060895092E0394F5
S1130890000C11F4882352F0BB0F40F4BF2B11F469
S11308A060FF04C06F5F7F4F8F4F9F4F0895BB273A
S11308B04A3031F4992322F4BDE2909581959F4FFB
S11308C00C946304BB27FB015527AA27880F991FA3
S11308D0AA1FA41710F0A41B83955051B9F7A05D6B
S11308E0AA3308F0A95DA193009779F7B111B193E8
S11308F01192CB010C947C04DC01FC01672F7191F3
S11309007723E1F7329704C07C916D9370836291F1
S10F0910AE17BF07C8F30895F894FFCF9A
S113091C74656D7065726174757265203D2000009C
S9030000FC
